:02000000C12C11
:10000800FF00030E83018316A7000A08A8008A01CF
:1000180070088312A4007B08A3007C08A2007D0856
:10002800A10002300B04F000031933280715B1248E
:10003800B124B124B124B124B124B124B124B12410
:10004800B124B124B124B124B124B124B124B12400
:10005800B124B124B12400308705FD308B05240874
:10006800F0002308FB002208FC002108FD0083168D
:0E00780028088A00270E8300FF0E7F0E090065
:060086000000000008006C
:10008C000F3083120313FC004730FD00FD0B4C288E
:0A009C00FC0B4C28000000000800D7
:0E00A600213083120313FD00FD0B57280800C4
:0E00B400F201F101F001F801F3010030080043
:1000C2007B15FB1F6B280130F300F201F101F001F7
:0800D200FA0DF20CFF300800EA
:0800DA00FA1FF21300300800C8
:1000E2007B14FB1F7C28F201FA1FFF30F200F100A3
:0A00F200F000FA0DF20CFF300800D8
:1000FC0083120313F801F9011030FC00710DF80D97
:10010C00F90D7408F8027508031C750FF902031831
:10011C0096287408F80775080318750FF90703106B
:0A012C00F00DF10DFC0B8428080013
:1001360083160313B71BA22883128611A4288312E1
:1001460086158316371BAA2883120611AC2883123C
:1001560006158316B71AB22883128610B42883129E
:1001660086148316371ABA2883120613BC288312FC
:1001760006176018C0280616C128061286164320E0
:1001860086128316B719CA2883128611CC288312C1
:10019600861583163719D22883120611D42883129E
:1001A60006158316B718DA2883128610DC28831200
:1001B600861483163718E22883120613E42883125E
:1001C60006176018E8280616E92806128616432040
:0E01D6008612601CF0284620F12853200800F5
:0601E400FB15FF300800CE
:1001EA00FB14FB1FFF28FF30F300F200F100F000C0
:0801FA00FA0DF20CFF300800C1
:1002020083120313FB01FA01F9018030F800F10CAB
:10021200F00C031C15297408F90775080318750FEB
:10022200FA070318FB0A0310F01F1D297408FA07C6
:1002320075080318750FFB07FB0CFA0CF90CF80C88
:10024200031C08297B08F3007A08F2007908F10000
:060252007808F00008002E
:10025800A0017208031D41297108F2007008F1001D
:10026800F001A0157208031D41297108F200F1017F
:10027800A0112016720803194F292008F302031D44
:10028800031C53290310F21B5729F00DF10DF20D31
:10029800F30B472953290130FC005A205A29023010
:0E02A800FC0061205A290430FC006D20080083
:1002B600831203137008F8007108F000F101F201CF
:1002C600F301FB01FC019630F300FA01F01F7129DE
:1002D600F809F009F80A0319F00AFA177008F1008C
:0C02E6007808F000F801F2012C2108005B
:1002F20083120313601083163208B7009B20601428
:020302000800F1
:0E0304008312031362088A0061088200080059
:1003120083160313B50105303502031897293508F2
:100322003407840020308000B50A8C293508340750
:1003320084008001B50335083407B6000A30F400A2
:10034200F5013208F0003308F1007E207808F00051
:100352007908F1003030F0078316360884007008FF
:1003620080000A30F400F5013208F0003308F10091
:100372007E2070088316B2007108B3000030710647
:10038200031DC52900307006031DC829CA29B503FB
:040392009C2908009A
:1003960083120313FB0173080319082A7208FA0073
:1003A600F2178E30F302F31F0B2AF309F30A083013
:1003B6007302031CEE29F300F10D7208F100F2013D
:1003C60008307302031CEE29F300F10DF1017308E6
:1003D600031D0310F62973080319F6290310F20CFE
:1003E600F10CF30BF1297B1B711C002A031C002A5C
:1003F600F10A0319F20AF21B172AFA1F1A2AF2093E
:10040600F109F10A0319F20A1A2AF201F1011A2A6C
:100416007B14FB1F1D2AF201FA1F1D2AFF30F20072
:10042600F100FA0DF20C1D2A0130FC001F2A0030E3
:10043600FC001F2AFF30FC00FC080319232A712048
:0A0446007108F0007208F1000800D0
:1004500083120313E501E601831633088312660253
:10046000031D362A831632088312650203184D2AAB
:10047000E301E40180306406F00080307002031D67
:10048000432AA53063020318492AE30A0319E40A40
:0C0490003A2AE50A0319E60A2C2A0800A3
:10049C004130831203139F001F151F1D562A532A28
:1004AC001E08F100F00183161E08F0040030F10460
:1004BC006430F4000030F5000121FF30F40003300B
:0604CC00F5007E2008008F
:1004D200831203137408003A031D842A7508003A34
:1004E200031D842A7608003A031D842A7708003AFD
:1004F200031D842AFF30F000FF30F1007F30F2004C
:10050200FF30F3001F2B8312031377080319132BF9
:1005120073080319162B720876068039FA00F2174F
:10052200F617A0017208F8007108FC007008FD00BF
:100532007408FD027508031C750FFC027608031C83
:10054200760FF802F801FC01FD01031CAF2A03102B
:10055200F20CF10CF00CF80C0130A0007708F30259
:10056200031CB92A7E302007F3070318192BBE2A71
:100572007E302007F307031C1C2B1830FA07FD0DF1
:10058200FC0DF80DF00DF10DF20DA00D7408F00246
:100592007508031C750FF1027608031C760FF20230
:1005A200760DA004201CD72A7D14E22A7408F007D5
:1005B20075080318750FF10776080318760AF20713
:1005C2007D10FA031F307A05031DC02A7B1B7D1C98
:1005D200092B0310F00DF10DF20DA00D7408F002BD
:1005E2007508031C750FF1027608031C760FF202E0
:1005F200760D20040139FD070318FC0A0319F80AD5
:10060200031D092BF80CFC0CFD0CF30A0319192B22
:10061200FA1FF8137808F2007C08F1007D08F00058
:1006220000301E2B0130F2201E2B02305A201E2BCE
:0E0632000430F5201E2B083061200000080067
:0C0640004E227008E7007108E800080076
:10064C00831603138801831288010814E83083167B
:10065C00B2000330B300282200308805E83083163E
:0A066C00B2000330B300282208009A
:10067600831203138F018E0107140630FD00FD0B54
:10068600422B000007108718492B462B1014871C95
:100696004D2B4A2B10100F08F100F0010E08F00444
:1006A6000030F1045B21AE30F4004730F5006B30CA
:0C06B600F6008430F7006922CB21080018
:1006C200C030831603139F000F3085004130831220
:0406D2009F0008007D
:1006D60083160313AA012A082907840000080319B0
:1006E6007D2B2A08290784000008B2007921831689
:0606F600AA0A6E2B0800A9
:1006FC0082218A110A128000840AE10A0319E20A93
:08070C00F003031D7E2B080021
:100714009C2B803083160313A900AF2BC030A90093
:10072400AF2B9430A900AF2BD430A900AF2B80306D
:10073400A900AF2B831603132908013A03198B2B45
:100744002908023A0319902B2908033A0319932B19
:100754002908043A0319962B992B2A03F000290837
:10076400F0077008A9007008B7009B20601083167A
:10077400AC012C082B07840000080319CA2B2C0891
:100784002B0784000008B20079218316AC0ABB2B26
:060794008312601408004E
:10079A0083160313AA01AB012908F2002908F30002
:1007AA00720884000008203A031DE02B2A082B0453
:1007BA00031DE02BED2B0130AA000030AB007208BC
:1007CA0084000008F0007308840070088000F30AAF
:1007DA007208F100F20A710884000008003A031D49
:0807EA00D52B2908F0000800DE
:1007F20083160313AE01AF012908B0002A08B10025
:1008020080302A06F00080307002031D0A2C00306E
:1008120029020318182C0130AE000030AF0029085D
:10082200003CB0002A08031C013EB101B1023008AD
:10083200B2003108B3002B08B40089210630AC00A5
:100842000030AD002D08003C031D292C2C08003C73
:100852000318442C2C082B07F20001302C02F00064
:100862000030031C013E2D02F10070082B078400AA
:100872000008F00072088400700880000130AC02A9
:10088200031CAD03232C2B088400203080002E088B
:100892002F040319622CAC01AD012C082B07840034
:1008A2000008203A031D592CAC0A0319AD0A4E2C3C
:1008B2000130AC02031CAD032C082B0784002D3041
:0408C20080000800AA
:1008C6008316031386120612061386100611861166
:1008D600831286120612861106118610061346200A
:1008E6004620462086140617861643208612462082
:1008F60086164320861246208616432086124620F8
:100906000613861643208612462086164320861234
:1009160086108615861643208612462086110617EF
:100926008616432086120613861643208612462014
:100936008616432086120617861643208612462000
:100946000613861643208612861506158614061784
:0C0956008616432086124620601408001C
:10096200023083120313FB000430FC00BA30FD0096
:10097200FD0BB92CFC0BB92CFB0BB92C00000800A9
:10098200F825023083160313870001308600FE30FB
:1009920083128605870190308B046324D03083163E
:1009A200B2000730B300282201308316B7009B2023
:1009B2000C308316B7009B2001308316A900063045
:1009C200AA003330AB008A236123E8308316B200D9
:1009D2000330B3002822E8308316B2000330B3009C
:1009E200282201308316B7009B200C308316B700F3
:1009F2009B2010309000B8308316B2000B30B30049
:100A0200282201308316A9000130AA003930AB0038
:100A12008A233B237008C4007108C500700883163E
:100A2200A9007108AA00A030AB00F923A030A900E8
:100A3200CD230230A9000830AA00A030AB008A23DF
:100A4200B8308316B2000B30B3002822013083166F
:100A5200B7009B200C308316B7009B208030F0003B
:100A6200803045067002031D382D4408063C0318E9
:100A72003C2D2623B52D01308316A9000130AA0092
:100A82005530AB008A2320237008E7007108E80084
:100A920070088316A9007108AA006930AB00F92317
:100AA2006930A900CD230230A9000830AA006930BC
:100AB200AB008A2346308316A9006B23A030B20014
:100AC2000F30B300282201308316B7009B200C3070
:100AD2008316B7009B2000306802031D722D24305C
:100AE20067020318A32D02308316A9000130AA0061
:100AF2004830AB008A23A0308316B2000F30B30017
:100B0200282201308316B7009B200C308316B700D1
:100B12009B208814A0308316B2000F30B300282225
:100B220000308805D0308316B2000730B300282287
:100B3200071588308316B2001330B3002822003024
:100B42008705FC2C01308316A9000130AA0025304C
:100B5200AB008A230815A0308316B2000F30B30011
:0C0B6200282200308605FC2CFC2CB62D4F
:100BF000253084003B3083120313F000BC30E10049
:080C00000530E2007E2308002C
:100B7800483469346734683420344D346F34693408
:0C0B8800733474347534723465340034F6
:0C0B9400483465346C346C346F34003429
:100BA000443469347334743461346E34633465347A
:060BB0003A342034003449
:040BB60000340034D3
:040BBA0025340034AA
:100BBE004C346F34773420344D346F34693473349D
:0A0BCE007434753472346534003459
:100BD8004D346F3469347334743475347234653415
:060BE8003A342034003411
:02400E004A2F37
:00000001FF
